{
	"data": {
		"bytecode": {
			"linkReferences": {},
			"object": "6080604052348015600f57600080fd5b5060928061001e6000396000f3fe6080604052348015600f57600080fd5b506004361060275760003560e01c80624264c314602c575b600080fd5b6032604e565b604051808260ff1660ff16815260200191505060405180910390f35b60008060ff9050809150509056fea2646970667358221220b22aeb45d449d8e75d4d188ea4039a07f96afc24ada64f810c87b8f0fb7f953064736f6c63430006060033",
			"opcodes": "PUSH1 0x80 PUSH1 0x40 MSTORE CALLVALUE DUP1 ISZERO PUSH1 0xF JUMPI PUSH1 0x0 DUP1 REVERT JUMPDEST POP PUSH1 0x92 DUP1 PUSH2 0x1E PUSH1 0x0 CODECOPY PUSH1 0x0 RETURN INVALID PUSH1 0x80 PUSH1 0x40 MSTORE CALLVALUE DUP1 ISZERO PUSH1 0xF JUMPI PUSH1 0x0 DUP1 REVERT JUMPDEST POP PUSH1 0x4 CALLDATASIZE LT PUSH1 0x27 JUMPI PUSH1 0x0 CALLDATALOAD PUSH1 0xE0 SHR DUP1 PUSH3 0x4264C3 EQ PUSH1 0x2C JUMPI JUMPDEST PUSH1 0x0 DUP1 REVERT JUMPDEST PUSH1 0x32 PUSH1 0x4E JUMP JUMPDEST PUSH1 0x40 MLOAD DUP1 DUP3 PUSH1 0xFF AND PUSH1 0xFF AND DUP2 MSTORE PUSH1 0x20 ADD SWAP2 POP POP PUSH1 0x40 MLOAD DUP1 SWAP2 SUB SWAP1 RETURN JUMPDEST PUSH1 0x0 DUP1 PUSH1 0xFF SWAP1 POP DUP1 SWAP2 POP POP SWAP1 JUMP INVALID LOG2 PUSH5 0x6970667358 0x22 SLT KECCAK256 0xB2 0x2A 0xEB GASLIMIT 0xD4 0x49 0xD8 0xE7 0x5D 0x4D XOR DUP15 LOG4 SUB SWAP11 SMOD 0xF9 PUSH11 0xFC24ADA64F810C87B8F0FB PUSH32 0x953064736F6C6343000606003300000000000000000000000000000000000000 "
		},
		"gasEstimates": {
			"creation": {
				"codeDepositCost": "29200",
				"executionCost": "81",
				"totalCost": "29281"
			},
			"external": {
				"overflow()": "216"
			}
		},
		"methodIdentifiers": {
			"overflow()": "004264c3"
		}
	},
	"abi": [
		{
			"inputs": [],
			"name": "overflow",
			"outputs": [
				{
					"internalType": "uint8",
					"name": "",
					"type": "uint8"
				}
			],
			"stateMutability": "view",
			"type": "function"
		}
	]
}